{
  "contractName": "Tally",
  "abi": [
    {
      "constant": true,
      "inputs": [
        {
          "name": "",
          "type": "address"
        }
      ],
      "name": "owners",
      "outputs": [
        {
          "name": "",
          "type": "bool"
        }
      ],
      "payable": false,
      "stateMutability": "view",
      "type": "function"
    },
    {
      "constant": true,
      "inputs": [],
      "name": "cand2Count",
      "outputs": [
        {
          "name": "",
          "type": "uint256"
        }
      ],
      "payable": false,
      "stateMutability": "view",
      "type": "function"
    },
    {
      "constant": true,
      "inputs": [
        {
          "name": "",
          "type": "address"
        }
      ],
      "name": "admins",
      "outputs": [
        {
          "name": "",
          "type": "bool"
        }
      ],
      "payable": false,
      "stateMutability": "view",
      "type": "function"
    },
    {
      "constant": true,
      "inputs": [
        {
          "name": "",
          "type": "address"
        }
      ],
      "name": "verifiers",
      "outputs": [
        {
          "name": "",
          "type": "bool"
        }
      ],
      "payable": false,
      "stateMutability": "view",
      "type": "function"
    },
    {
      "constant": true,
      "inputs": [
        {
          "name": "",
          "type": "address"
        }
      ],
      "name": "superOwner",
      "outputs": [
        {
          "name": "",
          "type": "bool"
        }
      ],
      "payable": false,
      "stateMutability": "view",
      "type": "function"
    },
    {
      "constant": true,
      "inputs": [],
      "name": "sum",
      "outputs": [
        {
          "name": "",
          "type": "uint256"
        }
      ],
      "payable": false,
      "stateMutability": "view",
      "type": "function"
    },
    {
      "constant": true,
      "inputs": [
        {
          "name": "",
          "type": "uint256"
        }
      ],
      "name": "verifiersList",
      "outputs": [
        {
          "name": "voterAdress",
          "type": "address"
        },
        {
          "name": "state",
          "type": "string"
        },
        {
          "name": "county",
          "type": "string"
        },
        {
          "name": "city",
          "type": "string"
        },
        {
          "name": "pollingId",
          "type": "string"
        },
        {
          "name": "pollingName",
          "type": "string"
        },
        {
          "name": "cand1",
          "type": "uint256"
        },
        {
          "name": "cand2",
          "type": "uint256"
        }
      ],
      "payable": false,
      "stateMutability": "view",
      "type": "function"
    },
    {
      "constant": true,
      "inputs": [],
      "name": "cand1Count",
      "outputs": [
        {
          "name": "",
          "type": "uint256"
        }
      ],
      "payable": false,
      "stateMutability": "view",
      "type": "function"
    },
    {
      "inputs": [],
      "payable": false,
      "stateMutability": "nonpayable",
      "type": "constructor"
    },
    {
      "constant": false,
      "inputs": [
        {
          "name": "admin",
          "type": "address"
        }
      ],
      "name": "addAdmin",
      "outputs": [],
      "payable": false,
      "stateMutability": "nonpayable",
      "type": "function"
    },
    {
      "constant": false,
      "inputs": [
        {
          "name": "admin",
          "type": "address"
        }
      ],
      "name": "removeAdmin",
      "outputs": [],
      "payable": false,
      "stateMutability": "nonpayable",
      "type": "function"
    },
    {
      "constant": false,
      "inputs": [
        {
          "name": "ownerz",
          "type": "address"
        }
      ],
      "name": "addOwners",
      "outputs": [],
      "payable": false,
      "stateMutability": "nonpayable",
      "type": "function"
    },
    {
      "constant": false,
      "inputs": [
        {
          "name": "ownerz",
          "type": "address"
        }
      ],
      "name": "removeOwner",
      "outputs": [],
      "payable": false,
      "stateMutability": "nonpayable",
      "type": "function"
    },
    {
      "constant": false,
      "inputs": [
        {
          "name": "verify",
          "type": "address"
        }
      ],
      "name": "addVerifier",
      "outputs": [],
      "payable": false,
      "stateMutability": "nonpayable",
      "type": "function"
    },
    {
      "constant": false,
      "inputs": [
        {
          "name": "verify",
          "type": "address"
        }
      ],
      "name": "removeVerifier",
      "outputs": [],
      "payable": false,
      "stateMutability": "nonpayable",
      "type": "function"
    },
    {
      "constant": false,
      "inputs": [
        {
          "name": "state",
          "type": "string"
        },
        {
          "name": "county",
          "type": "string"
        },
        {
          "name": "city",
          "type": "string"
        },
        {
          "name": "pollingId",
          "type": "string"
        },
        {
          "name": "pollingName",
          "type": "string"
        },
        {
          "name": "cand1",
          "type": "uint256"
        },
        {
          "name": "cand2",
          "type": "uint256"
        }
      ],
      "name": "createRequest",
      "outputs": [],
      "payable": false,
      "stateMutability": "nonpayable",
      "type": "function"
    },
    {
      "constant": true,
      "inputs": [],
      "name": "getRequestCount",
      "outputs": [
        {
          "name": "",
          "type": "uint256"
        }
      ],
      "payable": false,
      "stateMutability": "view",
      "type": "function"
    },
    {
      "constant": true,
      "inputs": [],
      "name": "getFinalResults",
      "outputs": [
        {
          "name": "",
          "type": "uint256"
        },
        {
          "name": "",
          "type": "uint256"
        },
        {
          "name": "",
          "type": "uint256"
        }
      ],
      "payable": false,
      "stateMutability": "view",
      "type": "function"
    }
  ],
  "bytecode": "0x608060405234801561001057600080fd5b506001600460003373ffffffffffffffffffffffffffffffffffffffff1673ffffffffffffffffffffffffffffffffffffffff16815260200190815260200160002060006101000a81548160ff02191690831515021790555060018060003373ffffffffffffffffffffffffffffffffffffffff1673ffffffffffffffffffffffffffffffffffffffff16815260200190815260200160002060006101000a81548160ff0219169083151502179055506001600260003373ffffffffffffffffffffffffffffffffffffffff1673ffffffffffffffffffffffffffffffffffffffff16815260200190815260200160002060006101000a81548160ff0219169083151502179055506001600360003373ffffffffffffffffffffffffffffffffffffffff1673ffffffffffffffffffffffffffffffffffffffff16815260200190815260200160002060006101000a81548160ff0219169083151502179055506117eb8061017f6000396000f3006080604052600436106100f1576000357c0100000000000000000000000000000000000000000000000000000000900463ffffffff168063022914a7146100f65780631290bf9514610151578063173825d91461017c5780631785f53c146101bf5780632973af62146102025780633fad183414610397578063429b62e5146103c25780635f3b1f3b1461041d5780636c8244871461046057806370480275146104bb578063785ba4de146104fe57806384ac943e14610537578063853255cc146105925780639000b3d6146105bd578063ca2dfd0a14610600578063d1f1c5d114610643578063ddeea51d146108da575b600080fd5b34801561010257600080fd5b50610137600480360381019080803573ffffffffffffffffffffffffffffffffffffffff169060200190929190505050610905565b604051808215151515815260200191505060405180910390f35b34801561015d57600080fd5b50610166610925565b6040518082815260200191505060405180910390f35b34801561018857600080fd5b506101bd600480360381019080803573ffffffffffffffffffffffffffffffffffffffff16906020019092919050505061092b565b005b3480156101cb57600080fd5b50610200600480360381019080803573ffffffffffffffffffffffffffffffffffffffff1690602001909291905050506109e4565b005b34801561020e57600080fd5b50610395600480360381019080803590602001908201803590602001908080601f0160208091040260200160405190810160405280939291908181526020018383808284378201915050505050509192919290803590602001908201803590602001908080601f0160208091040260200160405190810160405280939291908181526020018383808284378201915050505050509192919290803590602001908201803590602001908080601f0160208091040260200160405190810160405280939291908181526020018383808284378201915050505050509192919290803590602001908201803590602001908080601f0160208091040260200160405190810160405280939291908181526020018383808284378201915050505050509192919290803590602001908201803590602001908080601f01602080910402602001604051908101604052809392919081815260200183838082843782019150505050505091929192908035906020019092919080359060200190929190505050610afb565b005b3480156103a357600080fd5b506103ac610cfe565b6040518082815260200191505060405180910390f35b3480156103ce57600080fd5b50610403600480360381019080803573ffffffffffffffffffffffffffffffffffffffff169060200190929190505050610d0a565b604051808215151515815260200191505060405180910390f35b34801561042957600080fd5b5061045e600480360381019080803573ffffffffffffffffffffffffffffffffffffffff169060200190929190505050610d2a565b005b34801561046c57600080fd5b506104a1600480360381019080803573ffffffffffffffffffffffffffffffffffffffff169060200190929190505050610e92565b604051808215151515815260200191505060405180910390f35b3480156104c757600080fd5b506104fc600480360381019080803573ffffffffffffffffffffffffffffffffffffffff169060200190929190505050610eb2565b005b34801561050a57600080fd5b50610513611020565b60405180848152602001838152602001828152602001935050505060405180910390f35b34801561054357600080fd5b50610578600480360381019080803573ffffffffffffffffffffffffffffffffffffffff169060200190929190505050611039565b604051808215151515815260200191505060405180910390f35b34801561059e57600080fd5b506105a7611059565b6040518082815260200191505060405180910390f35b3480156105c957600080fd5b506105fe600480360381019080803573ffffffffffffffffffffffffffffffffffffffff16906020019092919050505061105f565b005b34801561060c57600080fd5b50610641600480360381019080803573ffffffffffffffffffffffffffffffffffffffff1690602001909291905050506111d4565b005b34801561064f57600080fd5b5061066e60048036038101908080359060200190929190505050611349565b604051808973ffffffffffffffffffffffffffffffffffffffff1673ffffffffffffffffffffffffffffffffffffffff168152602001806020018060200180602001806020018060200188815260200187815260200186810386528d818151815260200191508051906020019080838360005b838110156106fc5780820151818401526020810190506106e1565b50505050905090810190601f1680156107295780820380516001836020036101000a031916815260200191505b5086810385528c818151815260200191508051906020019080838360005b83811015610762578082015181840152602081019050610747565b50505050905090810190601f16801561078f5780820380516001836020036101000a031916815260200191505b5086810384528b818151815260200191508051906020019080838360005b838110156107c85780820151818401526020810190506107ad565b50505050905090810190601f1680156107f55780820380516001836020036101000a031916815260200191505b5086810383528a818151815260200191508051906020019080838360005b8381101561082e578082015181840152602081019050610813565b50505050905090810190601f16801561085b5780820380516001836020036101000a031916815260200191505b50868103825289818151815260200191508051906020019080838360005b83811015610894578082015181840152602081019050610879565b50505050905090810190601f1680156108c15780820380516001836020036101000a031916815260200191505b509d505050505050505050505050505060405180910390f35b3480156108e657600080fd5b506108ef6116b8565b6040518082815260200191505060405180910390f35b60026020528060005260406000206000915054906101000a900460ff1681565b60065481565b6000600460003373ffffffffffffffffffffffffffffffffffffffff1673ffffffffffffffffffffffffffffffffffffffff16815260200190815260200160002060009054906101000a900460ff16905080151561098857600080fd5b6000600260008473ffffffffffffffffffffffffffffffffffffffff1673ffffffffffffffffffffffffffffffffffffffff16815260200190815260200160002060006101000a81548160ff0219169083151502179055505050565b6000600260003373ffffffffffffffffffffffffffffffffffffffff1673ffffffffffffffffffffffffffffffffffffffff16815260200190815260200160002060009054906101000a900460ff169050801515610a4157600080fd5b6000600460003373ffffffffffffffffffffffffffffffffffffffff1673ffffffffffffffffffffffffffffffffffffffff16815260200190815260200160002060009054906101000a900460ff169050801515610a9e57600080fd5b6000600160008573ffffffffffffffffffffffffffffffffffffffff1673ffffffffffffffffffffffffffffffffffffffff16815260200190815260200160002060006101000a81548160ff021916908315150217905550505050565b610b036116be565b6000600360003373ffffffffffffffffffffffffffffffffffffffff1673ffffffffffffffffffffffffffffffffffffffff16815260200190815260200160002060009054906101000a900460ff169050801515610b6057600080fd5b610100604051908101604052803373ffffffffffffffffffffffffffffffffffffffff1681526020018a81526020018981526020018881526020018781526020018681526020018581526020018481525091506000829080600181540180825580915050906001820390600052602060002090600802016000909192909190915060008201518160000160006101000a81548173ffffffffffffffffffffffffffffffffffffffff021916908373ffffffffffffffffffffffffffffffffffffffff1602179055506020820151816001019080519060200190610c4492919061171a565b506040820151816002019080519060200190610c6192919061171a565b506060820151816003019080519060200190610c7e92919061171a565b506080820151816004019080519060200190610c9b92919061171a565b5060a0820151816005019080519060200190610cb892919061171a565b5060c0820151816006015560e082015181600701555050506005548401600581905550600654830160068190555060065460055401600781905550505050505050505050565b60008080549050905090565b60016020528060005260406000206000915054906101000a900460ff1681565b6000600460003373ffffffffffffffffffffffffffffffffffffffff1673ffffffffffffffffffffffffffffffffffffffff16815260200190815260200160002060009054906101000a900460ff169050801515610d8757600080fd5b6001600260008473ffffffffffffffffffffffffffffffffffffffff1673ffffffffffffffffffffffffffffffffffffffff16815260200190815260200160002060006101000a81548160ff02191690831515021790555060018060008473ffffffffffffffffffffffffffffffffffffffff1673ffffffffffffffffffffffffffffffffffffffff16815260200190815260200160002060006101000a81548160ff0219169083151502179055506001600360008473ffffffffffffffffffffffffffffffffffffffff1673ffffffffffffffffffffffffffffffffffffffff16815260200190815260200160002060006101000a81548160ff0219169083151502179055505050565b60036020528060005260406000206000915054906101000a900460ff1681565b6000600260003373ffffffffffffffffffffffffffffffffffffffff1673ffffffffffffffffffffffffffffffffffffffff16815260200190815260200160002060009054906101000a900460ff169050801515610f0f57600080fd5b6000600460003373ffffffffffffffffffffffffffffffffffffffff1673ffffffffffffffffffffffffffffffffffffffff16815260200190815260200160002060009054906101000a900460ff169050801515610f6c57600080fd5b60018060008573ffffffffffffffffffffffffffffffffffffffff1673ffffffffffffffffffffffffffffffffffffffff16815260200190815260200160002060006101000a81548160ff0219169083151502179055506001600360008573ffffffffffffffffffffffffffffffffffffffff1673ffffffffffffffffffffffffffffffffffffffff16815260200190815260200160002060006101000a81548160ff021916908315150217905550505050565b6000806000600554600654600754925092509250909192565b60046020528060005260406000206000915054906101000a900460ff1681565b60075481565b6000600160003373ffffffffffffffffffffffffffffffffffffffff1673ffffffffffffffffffffffffffffffffffffffff16815260200190815260200160002060009054906101000a900460ff1690508015156110bc57600080fd5b6000600260003373ffffffffffffffffffffffffffffffffffffffff1673ffffffffffffffffffffffffffffffffffffffff16815260200190815260200160002060009054906101000a900460ff16905080151561111957600080fd5b6000600460003373ffffffffffffffffffffffffffffffffffffffff1673ffffffffffffffffffffffffffffffffffffffff16815260200190815260200160002060009054906101000a900460ff16905080151561117657600080fd5b6001600360008673ffffffffffffffffffffffffffffffffffffffff1673ffffffffffffffffffffffffffffffffffffffff16815260200190815260200160002060006101000a81548160ff02191690831515021790555050505050565b6000600160003373ffffffffffffffffffffffffffffffffffffffff1673ffffffffffffffffffffffffffffffffffffffff16815260200190815260200160002060009054906101000a900460ff16905080151561123157600080fd5b6000600260003373ffffffffffffffffffffffffffffffffffffffff1673ffffffffffffffffffffffffffffffffffffffff16815260200190815260200160002060009054906101000a900460ff16905080151561128e57600080fd5b6000600460003373ffffffffffffffffffffffffffffffffffffffff1673ffffffffffffffffffffffffffffffffffffffff16815260200190815260200160002060009054906101000a900460ff1690508015156112eb57600080fd5b6000600360008673ffffffffffffffffffffffffffffffffffffffff1673ffffffffffffffffffffffffffffffffffffffff16815260200190815260200160002060006101000a81548160ff02191690831515021790555050505050565b60008181548110151561135857fe5b90600052602060002090600802016000915090508060000160009054906101000a900473ffffffffffffffffffffffffffffffffffffffff1690806001018054600181600116156101000203166002900480601f01602080910402602001604051908101604052809291908181526020018280546001816001161561010002031660029004801561142a5780601f106113ff5761010080835404028352916020019161142a565b820191906000526020600020905b81548152906001019060200180831161140d57829003601f168201915b505050505090806002018054600181600116156101000203166002900480601f0160208091040260200160405190810160405280929190818152602001828054600181600116156101000203166002900480156114c85780601f1061149d576101008083540402835291602001916114c8565b820191906000526020600020905b8154815290600101906020018083116114ab57829003601f168201915b505050505090806003018054600181600116156101000203166002900480601f0160208091040260200160405190810160405280929190818152602001828054600181600116156101000203166002900480156115665780601f1061153b57610100808354040283529160200191611566565b820191906000526020600020905b81548152906001019060200180831161154957829003601f168201915b505050505090806004018054600181600116156101000203166002900480601f0160208091040260200160405190810160405280929190818152602001828054600181600116156101000203166002900480156116045780601f106115d957610100808354040283529160200191611604565b820191906000526020600020905b8154815290600101906020018083116115e757829003601f168201915b505050505090806005018054600181600116156101000203166002900480601f0160208091040260200160405190810160405280929190818152602001828054600181600116156101000203166002900480156116a25780601f10611677576101008083540402835291602001916116a2565b820191906000526020600020905b81548152906001019060200180831161168557829003601f168201915b5050505050908060060154908060070154905088565b60055481565b61010060405190810160405280600073ffffffffffffffffffffffffffffffffffffffff168152602001606081526020016060815260200160608152602001606081526020016060815260200160008152602001600081525090565b828054600181600116156101000203166002900490600052602060002090601f016020900481019282601f1061175b57805160ff1916838001178555611789565b82800160010185558215611789579182015b8281111561178857825182559160200191906001019061176d565b5b509050611796919061179a565b5090565b6117bc91905b808211156117b85760008160009055506001016117a0565b5090565b905600a165627a7a72305820108b4f301b4ab473a193f64caf959b36aade15b59b01736e0ed9c994c80ab3f40029",
  "source": "// SPDX-License-Identifier: MIT\r\npragma solidity ^0.4.24;\r\n\r\n\r\ncontract Tally {\r\n\r\n    // Struct of the Observers \r\n    struct Verifier {\r\n        address voterAdress;\r\n        string  state;\r\n        string county;\r\n        string  city;\r\n        string pollingId;\r\n        string pollingName;\r\n        uint cand1;\r\n        uint cand2;}  \r\n\r\n     // List of all the Variables we will need \r\n    Verifier[] public verifiersList;\r\n    mapping (address => bool) public admins; //  incharge of a city \r\n    mapping (address => bool) public owners; // incharge of a county  \r\n    mapping (address => bool) public verifiers; // incharge of a polling booth \r\n    mapping (address => bool) public superOwner; // incharge of the whole election.\r\n    uint public cand1Count; // President Joe Biden total votes \r\n    uint public cand2Count; // Donald Trump total votes.\r\n    uint public sum;\r\n\r\n\r\n    // We need to restrict users according to their roles. e.g city, county , polling booth e.t.c\r\n    modifier restricted(){\r\n      bool isAdmin = admins[msg.sender];\r\n      require(isAdmin);\r\n      _;}\r\n      modifier owner(){\r\n      bool isOwner = owners[msg.sender];\r\n      require(isOwner);\r\n      _;}\r\n\r\n    modifier voterOnly (){\r\n    bool isVoter = verifiers[msg.sender];\r\n    require(isVoter);\r\n    _;}\r\n    modifier superOnly (){\r\n    bool isSuperOwner = superOwner[msg.sender];\r\n    require(isSuperOwner);\r\n    _;}\r\n     //constructor argument  for the smart contractor making the owner incharge of the whole election.\r\n    constructor() public{\r\n    superOwner[msg.sender] = true;\r\n    admins[msg.sender] = true;\r\n    owners[msg.sender] = true;\r\n    verifiers[msg.sender] = true;}\r\n    \r\n    // allowing observers incharge of states to add county observers.\r\n    function addAdmin(address admin) public owner superOnly {\r\n      admins[admin] = true;\r\n      verifiers[admin] = true;}\r\n   // they can also remove admins \r\n    function removeAdmin(address admin) public owner superOnly  {\r\n     admins[admin] = false;}\r\n\r\n// allowing observers incharge of counties to add observers of each city.\r\n    function addOwners(address ownerz) public superOnly {\r\n      owners[ownerz] = true;\r\n      admins[ownerz] = true;\r\n      verifiers[ownerz] = true;}\r\n\r\n// they can also remove owners \r\n    function removeOwner(address ownerz) public superOnly  {\r\n     owners[ownerz] = false;}\r\n\r\n// allowing observers incharge of cities to add minor observers for the polling booths.\r\n    function addVerifier(address verify) public restricted owner superOnly {\r\n     verifiers[verify] = true;}\r\n // they can also remove verifiers from list\r\n    function removeVerifier(address verify) public restricted owner superOnly {\r\n     verifiers[verify] = false;}\r\n\r\n\r\n    // allowing our observers to submit the tallied results of their respective tallying booths.\r\n    function createRequest(string state , string county ,string city,\r\n    string pollingId,string pollingName,\r\n    uint cand1, uint cand2 )\r\n    public  voterOnly {\r\n      Verifier memory newRequest = Verifier({\r\n        state : state, \r\n        county: county, \r\n        city : city,\r\n        pollingId : pollingId ,\r\n        pollingName:  pollingName,\r\n        cand1 : cand1,\r\n        cand2 : cand2,\r\n        voterAdress : msg.sender\r\n      });\r\n      verifiersList.push(newRequest);\r\n      cand1Count = cand1 + cand1Count;\r\n      cand2Count = cand2 + cand2Count;\r\n\r\n      sum = cand1Count + cand2Count;\r\n      \r\n      }\r\n      \r\n      // Getting a list of all results that have been submitted \r\n      function getRequestCount() public view returns(uint){\r\n        return verifiersList.length;}\r\n\r\n      // Getting sum of all published results.\r\n      function getFinalResults() public view returns (uint, uint , uint){\r\n        return (\r\n          cand1Count,\r\n          cand2Count,\r\n          sum \r\n        );\r\n      }\r\n\r\n}",
  "sourcePath": "C:\\Users\\AMERICAN CORNER -8\\Desktop\\electionfinal\\contracts\\Tally.sol",
  "compiler": {
    "name": "solc",
    "version": "0.4.24+commit.e67f0147.Emscripten.clang"
  },
  "schemaVersion": "3.4.13",
  "updatedAt": "2023-04-28T09:42:22.310Z",
  "networkType": "ethereum",
  "devdoc": {
    "methods": {}
  },
  "userdoc": {
    "methods": {}
  }
}