{
  "contractName": "Tally",
  "abi": [
    {
      "constant": true,
      "inputs": [
        {
          "name": "",
          "type": "address"
        }
      ],
      "name": "owners",
      "outputs": [
        {
          "name": "",
          "type": "bool"
        }
      ],
      "payable": false,
      "stateMutability": "view",
      "type": "function"
    },
    {
      "constant": true,
      "inputs": [],
      "name": "cand2Count",
      "outputs": [
        {
          "name": "",
          "type": "uint256"
        }
      ],
      "payable": false,
      "stateMutability": "view",
      "type": "function"
    },
    {
      "constant": true,
      "inputs": [],
      "name": "cand3Count",
      "outputs": [
        {
          "name": "",
          "type": "uint256"
        }
      ],
      "payable": false,
      "stateMutability": "view",
      "type": "function"
    },
    {
      "constant": true,
      "inputs": [
        {
          "name": "",
          "type": "address"
        }
      ],
      "name": "admins",
      "outputs": [
        {
          "name": "",
          "type": "bool"
        }
      ],
      "payable": false,
      "stateMutability": "view",
      "type": "function"
    },
    {
      "constant": true,
      "inputs": [
        {
          "name": "",
          "type": "address"
        }
      ],
      "name": "verifiers",
      "outputs": [
        {
          "name": "",
          "type": "bool"
        }
      ],
      "payable": false,
      "stateMutability": "view",
      "type": "function"
    },
    {
      "constant": true,
      "inputs": [],
      "name": "cand4Count",
      "outputs": [
        {
          "name": "",
          "type": "uint256"
        }
      ],
      "payable": false,
      "stateMutability": "view",
      "type": "function"
    },
    {
      "constant": true,
      "inputs": [
        {
          "name": "",
          "type": "address"
        }
      ],
      "name": "superOwner",
      "outputs": [
        {
          "name": "",
          "type": "bool"
        }
      ],
      "payable": false,
      "stateMutability": "view",
      "type": "function"
    },
    {
      "constant": true,
      "inputs": [],
      "name": "sum",
      "outputs": [
        {
          "name": "",
          "type": "uint256"
        }
      ],
      "payable": false,
      "stateMutability": "view",
      "type": "function"
    },
    {
      "constant": true,
      "inputs": [
        {
          "name": "",
          "type": "uint256"
        }
      ],
      "name": "verifiersList",
      "outputs": [
        {
          "name": "voterAdress",
          "type": "address"
        },
        {
          "name": "county",
          "type": "string"
        },
        {
          "name": "constituency",
          "type": "string"
        },
        {
          "name": "ward",
          "type": "string"
        },
        {
          "name": "pollingId",
          "type": "string"
        },
        {
          "name": "pollingName",
          "type": "string"
        },
        {
          "name": "cand1",
          "type": "uint256"
        },
        {
          "name": "cand2",
          "type": "uint256"
        },
        {
          "name": "cand3",
          "type": "uint256"
        },
        {
          "name": "cand4",
          "type": "uint256"
        }
      ],
      "payable": false,
      "stateMutability": "view",
      "type": "function"
    },
    {
      "constant": true,
      "inputs": [],
      "name": "cand1Count",
      "outputs": [
        {
          "name": "",
          "type": "uint256"
        }
      ],
      "payable": false,
      "stateMutability": "view",
      "type": "function"
    },
    {
      "inputs": [],
      "payable": false,
      "stateMutability": "nonpayable",
      "type": "constructor"
    },
    {
      "constant": false,
      "inputs": [
        {
          "name": "admin",
          "type": "address"
        }
      ],
      "name": "addAdmin",
      "outputs": [],
      "payable": false,
      "stateMutability": "nonpayable",
      "type": "function"
    },
    {
      "constant": false,
      "inputs": [
        {
          "name": "admin",
          "type": "address"
        }
      ],
      "name": "removeAdmin",
      "outputs": [],
      "payable": false,
      "stateMutability": "nonpayable",
      "type": "function"
    },
    {
      "constant": false,
      "inputs": [
        {
          "name": "ownerz",
          "type": "address"
        }
      ],
      "name": "addOwners",
      "outputs": [],
      "payable": false,
      "stateMutability": "nonpayable",
      "type": "function"
    },
    {
      "constant": false,
      "inputs": [
        {
          "name": "ownerz",
          "type": "address"
        }
      ],
      "name": "removeOwner",
      "outputs": [],
      "payable": false,
      "stateMutability": "nonpayable",
      "type": "function"
    },
    {
      "constant": false,
      "inputs": [
        {
          "name": "verify",
          "type": "address"
        }
      ],
      "name": "addVerifier",
      "outputs": [],
      "payable": false,
      "stateMutability": "nonpayable",
      "type": "function"
    },
    {
      "constant": false,
      "inputs": [
        {
          "name": "verify",
          "type": "address"
        }
      ],
      "name": "removeVerifier",
      "outputs": [],
      "payable": false,
      "stateMutability": "nonpayable",
      "type": "function"
    },
    {
      "constant": false,
      "inputs": [
        {
          "name": "county",
          "type": "string"
        },
        {
          "name": "constituency",
          "type": "string"
        },
        {
          "name": "ward",
          "type": "string"
        },
        {
          "name": "pollingId",
          "type": "string"
        },
        {
          "name": "pollingName",
          "type": "string"
        },
        {
          "name": "cand1",
          "type": "uint256"
        },
        {
          "name": "cand2",
          "type": "uint256"
        },
        {
          "name": "cand3",
          "type": "uint256"
        },
        {
          "name": "cand4",
          "type": "uint256"
        }
      ],
      "name": "createRequest",
      "outputs": [],
      "payable": false,
      "stateMutability": "nonpayable",
      "type": "function"
    },
    {
      "constant": true,
      "inputs": [],
      "name": "getRequestCount",
      "outputs": [
        {
          "name": "",
          "type": "uint256"
        }
      ],
      "payable": false,
      "stateMutability": "view",
      "type": "function"
    },
    {
      "constant": true,
      "inputs": [],
      "name": "getFinalResults",
      "outputs": [
        {
          "name": "",
          "type": "uint256"
        },
        {
          "name": "",
          "type": "uint256"
        },
        {
          "name": "",
          "type": "uint256"
        },
        {
          "name": "",
          "type": "uint256"
        },
        {
          "name": "",
          "type": "uint256"
        }
      ],
      "payable": false,
      "stateMutability": "view",
      "type": "function"
    }
  ],
  "bytecode": "0x608060405234801561001057600080fd5b506001600460003373ffffffffffffffffffffffffffffffffffffffff1673ffffffffffffffffffffffffffffffffffffffff16815260200190815260200160002060006101000a81548160ff02191690831515021790555060018060003373ffffffffffffffffffffffffffffffffffffffff1673ffffffffffffffffffffffffffffffffffffffff16815260200190815260200160002060006101000a81548160ff0219169083151502179055506001600260003373ffffffffffffffffffffffffffffffffffffffff1673ffffffffffffffffffffffffffffffffffffffff16815260200190815260200160002060006101000a81548160ff0219169083151502179055506001600360003373ffffffffffffffffffffffffffffffffffffffff1673ffffffffffffffffffffffffffffffffffffffff16815260200190815260200160002060006101000a81548160ff0219169083151502179055506118fe8061017f6000396000f300608060405260043610610107576000357c0100000000000000000000000000000000000000000000000000000000900463ffffffff168063022914a71461010c5780631290bf9514610167578063173825d9146101925780631785f53c146101d557806332c1fbbe146102185780633fad183414610243578063429b62e51461026e578063523a457d146102c95780635f3b1f3b146104725780636c824487146104b55780637048027514610510578063736765dd14610553578063785ba4de1461057e57806384ac943e146105c5578063853255cc146106205780639000b3d61461064b578063ca2dfd0a1461068e578063d1f1c5d1146106d1578063ddeea51d14610976575b600080fd5b34801561011857600080fd5b5061014d600480360381019080803573ffffffffffffffffffffffffffffffffffffffff1690602001909291905050506109a1565b604051808215151515815260200191505060405180910390f35b34801561017357600080fd5b5061017c6109c1565b6040518082815260200191505060405180910390f35b34801561019e57600080fd5b506101d3600480360381019080803573ffffffffffffffffffffffffffffffffffffffff1690602001909291905050506109c7565b005b3480156101e157600080fd5b50610216600480360381019080803573ffffffffffffffffffffffffffffffffffffffff169060200190929190505050610a80565b005b34801561022457600080fd5b5061022d610b97565b6040518082815260200191505060405180910390f35b34801561024f57600080fd5b50610258610b9d565b6040518082815260200191505060405180910390f35b34801561027a57600080fd5b506102af600480360381019080803573ffffffffffffffffffffffffffffffffffffffff169060200190929190505050610ba9565b604051808215151515815260200191505060405180910390f35b3480156102d557600080fd5b50610470600480360381019080803590602001908201803590602001908080601f0160208091040260200160405190810160405280939291908181526020018383808284378201915050505050509192919290803590602001908201803590602001908080601f0160208091040260200160405190810160405280939291908181526020018383808284378201915050505050509192919290803590602001908201803590602001908080601f0160208091040260200160405190810160405280939291908181526020018383808284378201915050505050509192919290803590602001908201803590602001908080601f0160208091040260200160405190810160405280939291908181526020018383808284378201915050505050509192919290803590602001908201803590602001908080601f016020809104026020016040519081016040528093929190818152602001838380828437820191505050505050919291929080359060200190929190803590602001909291908035906020019092919080359060200190929190505050610bc9565b005b34801561047e57600080fd5b506104b3600480360381019080803573ffffffffffffffffffffffffffffffffffffffff169060200190929190505050610e0e565b005b3480156104c157600080fd5b506104f6600480360381019080803573ffffffffffffffffffffffffffffffffffffffff169060200190929190505050610f76565b604051808215151515815260200191505060405180910390f35b34801561051c57600080fd5b50610551600480360381019080803573ffffffffffffffffffffffffffffffffffffffff169060200190929190505050610f96565b005b34801561055f57600080fd5b50610568611104565b6040518082815260200191505060405180910390f35b34801561058a57600080fd5b5061059361110a565b604051808681526020018581526020018481526020018381526020018281526020019550505050505060405180910390f35b3480156105d157600080fd5b50610606600480360381019080803573ffffffffffffffffffffffffffffffffffffffff169060200190929190505050611132565b604051808215151515815260200191505060405180910390f35b34801561062c57600080fd5b50610635611152565b6040518082815260200191505060405180910390f35b34801561065757600080fd5b5061068c600480360381019080803573ffffffffffffffffffffffffffffffffffffffff169060200190929190505050611158565b005b34801561069a57600080fd5b506106cf600480360381019080803573ffffffffffffffffffffffffffffffffffffffff1690602001909291905050506112cd565b005b3480156106dd57600080fd5b506106fc60048036038101908080359060200190929190505050611442565b604051808b73ffffffffffffffffffffffffffffffffffffffff1673ffffffffffffffffffffffffffffffffffffffff16815260200180602001806020018060200180602001806020018a815260200189815260200188815260200187815260200186810386528f818151815260200191508051906020019080838360005b8381101561079657808201518184015260208101905061077b565b50505050905090810190601f1680156107c35780820380516001836020036101000a031916815260200191505b5086810385528e818151815260200191508051906020019080838360005b838110156107fc5780820151818401526020810190506107e1565b50505050905090810190601f1680156108295780820380516001836020036101000a031916815260200191505b5086810384528d818151815260200191508051906020019080838360005b83811015610862578082015181840152602081019050610847565b50505050905090810190601f16801561088f5780820380516001836020036101000a031916815260200191505b5086810383528c818151815260200191508051906020019080838360005b838110156108c85780820151818401526020810190506108ad565b50505050905090810190601f1680156108f55780820380516001836020036101000a031916815260200191505b5086810382528b818151815260200191508051906020019080838360005b8381101561092e578082015181840152602081019050610913565b50505050905090810190601f16801561095b5780820380516001836020036101000a031916815260200191505b509f5050505050505050505050505050505060405180910390f35b34801561098257600080fd5b5061098b6117bd565b6040518082815260200191505060405180910390f35b60026020528060005260406000206000915054906101000a900460ff1681565b60065481565b6000600460003373ffffffffffffffffffffffffffffffffffffffff1673ffffffffffffffffffffffffffffffffffffffff16815260200190815260200160002060009054906101000a900460ff169050801515610a2457600080fd5b6000600260008473ffffffffffffffffffffffffffffffffffffffff1673ffffffffffffffffffffffffffffffffffffffff16815260200190815260200160002060006101000a81548160ff0219169083151502179055505050565b6000600260003373ffffffffffffffffffffffffffffffffffffffff1673ffffffffffffffffffffffffffffffffffffffff16815260200190815260200160002060009054906101000a900460ff169050801515610add57600080fd5b6000600460003373ffffffffffffffffffffffffffffffffffffffff1673ffffffffffffffffffffffffffffffffffffffff16815260200190815260200160002060009054906101000a900460ff169050801515610b3a57600080fd5b6000600160008573ffffffffffffffffffffffffffffffffffffffff1673ffffffffffffffffffffffffffffffffffffffff16815260200190815260200160002060006101000a81548160ff021916908315150217905550505050565b60075481565b60008080549050905090565b60016020528060005260406000206000915054906101000a900460ff1681565b610bd16117c3565b6000600360003373ffffffffffffffffffffffffffffffffffffffff1673ffffffffffffffffffffffffffffffffffffffff16815260200190815260200160002060009054906101000a900460ff169050801515610c2e57600080fd5b610140604051908101604052803373ffffffffffffffffffffffffffffffffffffffff1681526020018c81526020018b81526020018a81526020018981526020018881526020018781526020018681526020018581526020018481525091506000829080600181540180825580915050906001820390600052602060002090600a02016000909192909190915060008201518160000160006101000a81548173ffffffffffffffffffffffffffffffffffffffff021916908373ffffffffffffffffffffffffffffffffffffffff1602179055506020820151816001019080519060200190610d1e92919061182d565b506040820151816002019080519060200190610d3b92919061182d565b506060820151816003019080519060200190610d5892919061182d565b506080820151816004019080519060200190610d7592919061182d565b5060a0820151816005019080519060200190610d9292919061182d565b5060c0820151816006015560e082015181600701556101008201518160080155610120820151816009015550505060055486016005819055506006548501600681905550600754840160078190555060085483016008819055506008546007546006546005540101016009819055505050505050505050505050565b6000600460003373ffffffffffffffffffffffffffffffffffffffff1673ffffffffffffffffffffffffffffffffffffffff16815260200190815260200160002060009054906101000a900460ff169050801515610e6b57600080fd5b6001600260008473ffffffffffffffffffffffffffffffffffffffff1673ffffffffffffffffffffffffffffffffffffffff16815260200190815260200160002060006101000a81548160ff02191690831515021790555060018060008473ffffffffffffffffffffffffffffffffffffffff1673ffffffffffffffffffffffffffffffffffffffff16815260200190815260200160002060006101000a81548160ff0219169083151502179055506001600360008473ffffffffffffffffffffffffffffffffffffffff1673ffffffffffffffffffffffffffffffffffffffff16815260200190815260200160002060006101000a81548160ff0219169083151502179055505050565b60036020528060005260406000206000915054906101000a900460ff1681565b6000600260003373ffffffffffffffffffffffffffffffffffffffff1673ffffffffffffffffffffffffffffffffffffffff16815260200190815260200160002060009054906101000a900460ff169050801515610ff357600080fd5b6000600460003373ffffffffffffffffffffffffffffffffffffffff1673ffffffffffffffffffffffffffffffffffffffff16815260200190815260200160002060009054906101000a900460ff16905080151561105057600080fd5b60018060008573ffffffffffffffffffffffffffffffffffffffff1673ffffffffffffffffffffffffffffffffffffffff16815260200190815260200160002060006101000a81548160ff0219169083151502179055506001600360008573ffffffffffffffffffffffffffffffffffffffff1673ffffffffffffffffffffffffffffffffffffffff16815260200190815260200160002060006101000a81548160ff021916908315150217905550505050565b60085481565b6000806000806000600554600654600754600854600954945094509450945094509091929394565b60046020528060005260406000206000915054906101000a900460ff1681565b60095481565b6000600160003373ffffffffffffffffffffffffffffffffffffffff1673ffffffffffffffffffffffffffffffffffffffff16815260200190815260200160002060009054906101000a900460ff1690508015156111b557600080fd5b6000600260003373ffffffffffffffffffffffffffffffffffffffff1673ffffffffffffffffffffffffffffffffffffffff16815260200190815260200160002060009054906101000a900460ff16905080151561121257600080fd5b6000600460003373ffffffffffffffffffffffffffffffffffffffff1673ffffffffffffffffffffffffffffffffffffffff16815260200190815260200160002060009054906101000a900460ff16905080151561126f57600080fd5b6001600360008673ffffffffffffffffffffffffffffffffffffffff1673ffffffffffffffffffffffffffffffffffffffff16815260200190815260200160002060006101000a81548160ff02191690831515021790555050505050565b6000600160003373ffffffffffffffffffffffffffffffffffffffff1673ffffffffffffffffffffffffffffffffffffffff16815260200190815260200160002060009054906101000a900460ff16905080151561132a57600080fd5b6000600260003373ffffffffffffffffffffffffffffffffffffffff1673ffffffffffffffffffffffffffffffffffffffff16815260200190815260200160002060009054906101000a900460ff16905080151561138757600080fd5b6000600460003373ffffffffffffffffffffffffffffffffffffffff1673ffffffffffffffffffffffffffffffffffffffff16815260200190815260200160002060009054906101000a900460ff1690508015156113e457600080fd5b6000600360008673ffffffffffffffffffffffffffffffffffffffff1673ffffffffffffffffffffffffffffffffffffffff16815260200190815260200160002060006101000a81548160ff02191690831515021790555050505050565b60008181548110151561145157fe5b90600052602060002090600a02016000915090508060000160009054906101000a900473ffffffffffffffffffffffffffffffffffffffff1690806001018054600181600116156101000203166002900480601f0160208091040260200160405190810160405280929190818152602001828054600181600116156101000203166002900480156115235780601f106114f857610100808354040283529160200191611523565b820191906000526020600020905b81548152906001019060200180831161150657829003601f168201915b505050505090806002018054600181600116156101000203166002900480601f0160208091040260200160405190810160405280929190818152602001828054600181600116156101000203166002900480156115c15780601f10611596576101008083540402835291602001916115c1565b820191906000526020600020905b8154815290600101906020018083116115a457829003601f168201915b505050505090806003018054600181600116156101000203166002900480601f01602080910402602001604051908101604052809291908181526020018280546001816001161561010002031660029004801561165f5780601f106116345761010080835404028352916020019161165f565b820191906000526020600020905b81548152906001019060200180831161164257829003601f168201915b505050505090806004018054600181600116156101000203166002900480601f0160208091040260200160405190810160405280929190818152602001828054600181600116156101000203166002900480156116fd5780601f106116d2576101008083540402835291602001916116fd565b820191906000526020600020905b8154815290600101906020018083116116e057829003601f168201915b505050505090806005018054600181600116156101000203166002900480601f01602080910402602001604051908101604052809291908181526020018280546001816001161561010002031660029004801561179b5780601f106117705761010080835404028352916020019161179b565b820191906000526020600020905b81548152906001019060200180831161177e57829003601f168201915b505050505090806006015490806007015490806008015490806009015490508a565b60055481565b61014060405190810160405280600073ffffffffffffffffffffffffffffffffffffffff1681526020016060815260200160608152602001606081526020016060815260200160608152602001600081526020016000815260200160008152602001600081525090565b828054600181600116156101000203166002900490600052602060002090601f016020900481019282601f1061186e57805160ff191683800117855561189c565b8280016001018555821561189c579182015b8281111561189b578251825591602001919060010190611880565b5b5090506118a991906118ad565b5090565b6118cf91905b808211156118cb5760008160009055506001016118b3565b5090565b905600a165627a7a72305820d238c5d25f0b1ef4e5c0394f68ac8f36464e2e48417a7e0855fdd3b0f23e291c0029",
  "source": "pragma solidity ^0.4.24;\n\n\ncontract Tally {\n\n    struct Verifier {\n        address voterAdress;\n        string  county;\n        string constituency;\n        string  ward;\n        string pollingId;\n        string pollingName;\n        uint cand1;\n        uint cand2;\n        uint cand3;\n        uint cand4;}\n\n    Verifier[] public verifiersList;\n    mapping (address => bool) public admins;\n    mapping (address => bool) public owners;\n    mapping (address => bool) public verifiers;\n    mapping (address => bool) public superOwner;\n    uint public cand1Count;\n    uint public cand2Count;\n    uint public cand3Count;\n    uint public cand4Count;\n    uint public sum;\n\n    modifier restricted(){\n      bool isAdmin = admins[msg.sender];\n      require(isAdmin);\n      _;}\n      modifier owner(){\n      bool isOwner = owners[msg.sender];\n      require(isOwner);\n      _;}\n\n    modifier voterOnly (){\n    bool isVoter = verifiers[msg.sender];\n    require(isVoter);\n    _;}\n    modifier superOnly (){\n    bool isSuperOwner = superOwner[msg.sender];\n    require(isSuperOwner);\n    _;}\n     //constructor argument \n    constructor() public{\n    superOwner[msg.sender] = true;\n    admins[msg.sender] = true;\n    owners[msg.sender] = true;\n    verifiers[msg.sender] = true;}\n    \n    function addAdmin(address admin) public owner superOnly {\n      admins[admin] = true;\n      verifiers[admin] = true;}\n\n    function removeAdmin(address admin) public owner superOnly  {\n     admins[admin] = false;}\n\n    function addOwners(address ownerz) public superOnly {\n      owners[ownerz] = true;\n      admins[ownerz] = true;\n      verifiers[ownerz] = true;}\n\n    function removeOwner(address ownerz) public superOnly  {\n     owners[ownerz] = false;}\n\n    function addVerifier(address verify) public restricted owner superOnly {\n     verifiers[verify] = true;}\n\n    function removeVerifier(address verify) public restricted owner superOnly {\n     verifiers[verify] = false;}\n\n    function createRequest(string county , string constituency,string ward,\n    string pollingId,string pollingName,\n    uint cand1, uint cand2,\n    uint cand3 , uint cand4 )\n    public  voterOnly {\n      Verifier memory newRequest= Verifier({\n        county : county, \n        constituency: constituency, \n        ward : ward,\n        pollingId : pollingId ,\n        pollingName:  pollingName,\n        cand1 : cand1,\n        cand2 : cand2,\n        cand3 : cand3,\n        cand4 : cand4,\n        voterAdress : msg.sender\n      });\n      verifiersList.push(newRequest);\n      cand1Count = cand1 + cand1Count;\n      cand2Count = cand2 + cand2Count;\n      cand3Count = cand3 + cand3Count;\n      cand4Count = cand4 + cand4Count;\n      sum = cand1Count + cand2Count + cand3Count + cand4Count;\n      \n      }\n\n      function getRequestCount() public view returns(uint){\n        return verifiersList.length;}\n\n      function getFinalResults() public view returns (uint, uint ,uint, uint, uint){\n        return (\n          cand1Count,\n          cand2Count,\n          cand3Count,\n          cand4Count,\n          sum \n        );\n      }\n\n}",
  "sourcePath": "/home/kim/Desktop/Electionresult/contracts/Tally.sol",
  "compiler": {
    "name": "solc",
    "version": "0.4.24+commit.e67f0147.Emscripten.clang"
  },
  "schemaVersion": "3.4.6",
  "updatedAt": "2022-08-07T07:51:07.642Z",
  "networkType": "ethereum",
  "devdoc": {
    "methods": {}
  },
  "userdoc": {
    "methods": {}
  }
}